:020000040800F2
:10000000001000203D2A00080F19000811190008EF
:1000100000000000000000000000000000000000E0
:10002000000000000000000000000000131900089C
:100030000000000000000000151900081719000852
:100040008D2A0008000000008D2A00088D2A000873
:100050008D2A00088D2A00088D2A00088D2A0008A4
:10006000000000008D2A00088D2A00088D2A000853
:100070008D2A00088D2A00088D2A00080000000043
:100080008D2A000800000000000000008D2A0008F2
:10009000000000008D2A00088D2A00088D2A000823
:1000A000000000008D2A0008000000008D2A0008D2
:1000B0000000000000000000000000000000000040
:1000C00010B5064C2378002B07D1054B002B02D02E
:1000D000044800E000BF0123237010BD6800002029
:1000E00000000000343A0008084B10B5002B03D084
:1000F0000749084800E000BF07480368002B00D10B
:1001000010BD064B002BFBD09847F9E7000000001C
:100110006C000020343A0008680000200000000055
:1001200002B4714649084900095C49008E4402BC8A
:100130007047C046002243088B4274D303098B42A8
:100140005FD3030A8B4244D3030B8B4228D3030CA7
:100150008B420DD3FF22090212BA030C8B4202D349
:100160001212090265D0030B8B4219D300E0090A71
:10017000C30B8B4201D3CB03C01A5241830B8B427A
:1001800001D38B03C01A5241430B8B4201D34B0363
:10019000C01A5241030B8B4201D30B03C01A5241C8
:1001A000C30A8B4201D3CB02C01A5241830A8B424D
:1001B00001D38B02C01A5241430A8B4201D34B0236
:1001C000C01A5241030A8B4201D30B02C01A52419A
:1001D000CDD2C3098B4201D3CB01C01A524183094E
:1001E0008B4201D38B01C01A524143098B4201D388
:1001F0004B01C01A524103098B4201D30B01C01AB3
:100200005241C3088B4201D3CB00C01A524183082C
:100210008B4201D38B00C01A524143088B4201D359
:100220004B00C01A5241411A00D2014652411046B9
:100230007047FFE701B5002000F006F802BDC04698
:100240000029F7D076E770477047C046032103685E
:1002500070B59A6804000A40012A01D0002070BDE0
:100260001968114202D1DA681204F7D505229D6897
:100270001540012D1AD1022299680A439A6003227F
:100280001A6000F037FB060023689B682B42E5D01C
:1002900000F030FB801B0228F6D91023626C01208D
:1002A00013436364A36C1D43A564D8E710230120A6
:1002B000626C13436364A36C0343A364CFE7000041
:1002C000002373B503210193036804009A680A4070
:1002D000012A07D11968114201D0002076BDDA68E1
:1002E0001204FAD49968194A114208D01023012047
:1002F000626C13436364A36C0343A364EEE70122BF
:1003000099680A439A60124B12491868FFF712FF66
:100310000190019B002B15D100F0ECFA012506009D
:1003200023681B682B42D8D100F0E4FA801B022816
:10033000F6D91023626C012013436364A36C2B4332
:10034000A364CBE7019B013B0193E2E71700008028
:100350000000002040420F000422036870B5996835
:100360000400114201D1002070BD9968114206D0ED
:100370009A68920703D4102299680A439A6000F0A1
:10038000B9FA0425060023689B682B42EBD000F0E5
:10039000B1FA801B0228F6D910230120626C1343A6
:1003A0006364A36C0343A364DEE70000F8B50400B4
:1003B0000120002C72D0636C002B06D12200403249
:1003C000A3642000137001F025F8636CDB0600D5F0
:1003D00079E0042223689868104000D073E0626CD2
:1003E0004249114002220A43032162649A680A408A
:1003F000012A00D06DE01968114202D1DA681204B6
:1004000067D5DA683A49256A0A40DA60A2696F035B
:100410009103E269D2031143626B013A561EB24165
:100420001603E268114322690F43022A00D1042017
:10043000226B616A52003A4332430243012904D1DC
:10044000002D2CD1802149020A43C220A16AFF302D
:10045000814202D0E06A01430A438020D968400506
:100460001143D960A16B814202D0481E062807D8EB
:10047000072558692940A8435861586901435961C3
:10048000DB681C490B409A4211D100200322A06472
:10049000636C93431A00012313436364F8BD202067
:1004A000656C28436064A06C0143A164CDE712220F
:1004B000636C012093431A00102313436364A36CFD
:1004C0000343A364EAE71023626C012013436364CF
:1004D000E4E71821DA688A43A1680A43DA601969F7
:1004E000626889008908114319618AE7FDFEFFFFF0
:1004F0001902FEFFE7FF3F8370B5040001250028C5
:1005000011D00223426C13434364FFF725FF051EFD
:1005100033D12000FFF79AFE0500012805D10125FF
:10052000002340342370280070BD012363649F21A1
:10053000236820005A688A435A601960DA681049B3
:100540000A400721DA601A69920092081A615A6912
:100550008A435A611A6A0B490A401A629A6A0A491E
:10056000D20CD2049A62094A13680B40136000F05F
:1005700071FF0023A3646364D2E70128CFD0D6E7DC
:1005800000023E8300F000F0FFFF3FFF082701401C
:10059000036870B59B68040002205B071AD425002D
:1005A00040352B78012B15D001232B70E369012BEB
:1005B00011D1636C0B4A00201A4080235B00134367
:1005C0001C2263642368A06428701A609968183A32
:1005D0000A439A6070BD2000FFF772FE0028F9D12F
:1005E000E7E7C046FEF0FFFFF8B5456904000E00DE
:1005F000082D0DD003680120DB680C25034207D0CD
:100600002023626C40341343636000232370F8BDE1
:1006100000F070F9070023681A682A4223D080226C
:10062000616C92000A436264C022D96812011142CF
:1006300012D1226A002A0FD11A6812070CD59A68C3
:10064000520723D40C215A688A435A60626C1449B9
:10065000114001220A4362640020A2698242D6D17D
:100660000C221A60D3E7721CD6D0002E08D10423C6
:10067000626C403413436360002303202370C6E799
:1006800000F038F9C01B8642C5D2F0E72022616C29
:100690000A4362640122A16C0A43A264DCE7C046FB
:1006A000FEFEFFFF0368186C70470000F7B50023DB
:1006B000040001934034237805000220012B2BD045
:1006C00001232A68AE6B90682370400752D42C48EF
:1006D0004F680D6887423BD0AB4018008023976A73
:1006E0005B05384390629E420FD0013E062E0CD926
:1006F0008B68072150690840834206D050690B403F
:10070000884350615069034353612B00103B012B18
:1007100003D9002000232370FEBD1A4B80221968E4
:10072000102D13D0D2030A431A60102DF1D1164BAD
:1007300016491868FFF7FEFC0A2358430190019BF5
:10074000002BE6D0019B013B0193F8E71204EAE796
:10075000AB40916A99432B00103B9162012BD8D892
:10076000084B1A68102D03D009490A401A60D0E7D7
:100770000849FAE72022696C18000A436A64C9E74D
:1007800001100000082701400000002040420F0037
:10079000FFFFBFFFFFFF7FFFF0B5036885B00500D7
:1007A000DB0328D580220021374C5205E3690091F4
:1007B000134208D1E3691343E361E36913400393F0
:1007C000039B012300938027304E7F0033683B4218
:1007D00026D0C022236A920013402D4E32D1236AC4
:1007E0001E406B681E43009B2662012B03D1E36908
:1007F000284A1340E3612A68D30706D5032022491B
:100800000B6B8343A86803430B630020930617D543
:1008100010211D4A136B8B43E9680B4313630FE0F0
:1008200033683B43336000F065F8019033683B4226
:10083000CFD100F05FF8019BC01A6428F6D90320DD
:1008400005B0F0BD69680A409342C8D08023226A8F
:10085000206A11005B0203432362236A0E48314081
:10086000034023622162D307B9D500F043F80700A3
:100870000222236A1342B2D100F03CF8074BC01B9E
:100880009842F5D9DBE7C0460010024000700040F6
:10089000FFFCFFFFFFFFFFEFFFFFFEFF88130000DD
:1008A00010B5040000F0E6FAFA218900FFF742FCD7
:1008B00001F000F8012000222100404200F0CAFFB0
:1008C000002010BD1023064A10B5116800200B430C
:1008D0001360FFF7E5FF00F07FFD002010BDC0466C
:1008E00000200240024A1368013313607047C0467B
:1008F00098000020014B18687047C04698000020FF
:1009000037B50190FFF7F6FF019C0500631C5A1EE6
:100910009341E418FFF7EEFF401BA042FAD337BD26
:10092000F0B5036885B00500DB072FD42B689B0763
:1009300000D581E02B681B0700D5BCE02B685B0766
:1009400000D5DFE02B68DB061AD56A69B54C0423B5
:10095000012A00D04BE1616B02260B436363636B9A
:100960001A436263FFF7C6FF0700636B334200D18F
:1009700036E1F821626BAB698A43DB0013436363A2
:10098000296A002900D059E1002013E00C21A54C70
:1009900062680A40042A06D063680B40082B0BD11A
:1009A0006368DB0308D523689B03BFD56B68002B06
:1009B000BCD1012005B0F0BD6B68012B13D18023A1
:1009C00022685B0213432360FFF794FF8026070031
:1009D000B60223683342A9D1FFF78CFFC01B6428FD
:1009E000F7D90320E6E7002B16D123688E4A80262C
:1009F0001340236023688D4AB60213402360FFF73B
:100A000079FF07002368334200D18FE7FFF772FFB9
:100A1000C01B6428F6D9E4E7052B05D180232268A2
:100A2000DB0213432360CAE723687F4A1340236035
:100A300023687E4A1340C6E70C227A4C636813424F
:100A400006D063681340082B10D16368DB030DD414
:100A500023689B0702D5EB68012BAAD1F8212268F5
:100A60002B698A43DB001343236063E7EA680123B1
:100A7000002A0FD02268022613432360FFF73AFFB3
:100A8000070023683342E9D1FFF734FFC01B022877
:100A9000F7D9A6E7226802269A432260FFF72AFFC9
:100AA00007002368334200D144E7FFF723FFC01B50
:100AB0000228F6D995E7EA6901235A4C002A10D09A
:100AC000626A022613436362FFF714FF0700636A3A
:100AD000334200D032E7FFF70DFFC01B0228F6D9E2
:100AE0007FE7626A02269A436262FFF703FF07000C
:100AF000636A334200D121E7FFF7FCFEC01B0228E6
:100B0000F6D96EE780220021464C5205E369009138
:100B1000134208D1E3691343E361E369134003938C
:100B2000039B012300938027414E7F0033683B42A3
:100B300006D0AB68012B13D1226A1343236230E045
:100B400033683B433360FFF7D5FE019033683B4287
:100B5000EFD1FFF7CFFE019BC01A6428F6D940E71A
:100B60000122002B14D1236A022793432362236AB4
:100B7000033293432362FFF7BDFE0600236A3B4224
:100B800025D0FFF7B7FE2B4B801B9842F6D928E7FC
:100B9000052B0BD1216A013B0B432362236A1A43C5
:100BA0002262FFF7A7FE022706000DE0236A9343A7
:100BB00004222362236A9343C0E7FFF79BFE1D4B89
:100BC000801B984200D90CE7236A3B42F5D0009B7A
:100BD000012B00D0B6E6E369174A1340E361B1E6A2
:100BE000FFF788FEC01B022800D8BEE6F9E60532F2
:100BF00003D1626B9A436263BBE6626B02261343C6
:100C000001226363636B93436363FFF773FE070023
:100C1000636B334200D1B3E6FFF76CFEC01B0228C2
:100C2000F6D9DEE600100240FFFFFEFFFFFFFBFFEC
:100C30000070004088130000FFFFFFEF0C22264CDD
:100C4000012063681340082B00D1B3E62368234AD0
:100C50001340236002292FD1FFF74CFE80260700A6
:100C6000B6042368334221D10F22E36A9343EA6A30
:100C70001343E362696AAB6A62680B4318498025D3
:100C80000A4013436360802322685B04134323609C
:100C9000FFF730FE0600AD0423682B4200D073E658
:100CA000FFF728FE801B0228F6D99AE6FFF722FEFE
:100CB000C01B0228D5D994E6FFF71CFE802506004C
:100CC000AD0423682B4200D15EE6FFF713FE801BC4
:100CD0000228F6D985E6C04600100240FFFFFFFE5D
:100CE000FFFFC2FF70B5144C88B010222100684687
:100CF00001F0F2FE210004AD10221031280001F0B5
:100D0000EBFE0C220D4E73681A40082A11D10F20F9
:100D10006A46990C0140545CF26A0240A95CDB030C
:100D200005D50748FFF706FA604308B070BD0548CF
:100D3000FAE70348F9E7C0464C3A000800100240C1
:100D400000127A0000093D00F7B50122434C06006D
:100D500023680F0013408B421CD33268930723D4BF
:100D6000D30729D4012322681A40974267D33368F6
:100D70003B4C5B076AD4FFF7B5FF6368394A1B0633
:100D80001B0FD35CD840384B18600020FFF788FD5C
:100D9000002008E0236893430B432360236813403B
:100DA0009942DAD00120FEBDF0202D494B688343E3
:100DB000B06803434B60D3E7294D72682B68012A62
:100DC0001AD19B03EED503216B688B4313436B60F1
:100DD000FFF790FD73680190012B15D10C226B6811
:100DE0001340042BBED0FFF785FD019BC01A1F4B9B
:100DF0009842F3D90320D6E7022A02D19B01E2D41C
:100E0000D0E79B07DFD4CDE7022B12D00C226B6812
:100E10001342A7D0FFF76EFD019BC01A134B9842F7
:100E2000F4D9E7E7FFF766FD019BC01A0F4B984224
:100E3000E0D80C226B681340082BF3D192E72268AC
:100E40009A43226022681A42ACD190E76368084A4C
:100E50001340F268134363608DE7C04600200240F0
:100E6000001002406C3A00080000002088130000C7
:100E7000FFF8FFFF014B18687047C04600000020D4
:100E8000044B054A5B685B055B0FD35C034A106843
:100E9000D8407047001002407C3A00080000002053
:100EA00070470000194A10B50368904202D0184CF0
:100EB000A04208D17024A3434C68234390420BD036
:100EC000134CA04208D0134CA04205D0124CA042B3
:100ED00002D0124CA04203D1114C2340CC682343D2
:100EE0008024A3434C69234303608B68C3620B686F
:100EF0008362904205D0084B984202D0074B98423B
:100F000001D10B6903630123436110BD002C014033
:100F1000000400400020004000440140004801401F
:100F2000FFFCFFFF70B504000120002C14D0250049
:100F30003D352B78DBB2002B05D122003C321370FB
:100F4000200000F0C3FA022320682B70211DFFF758
:100F5000A9FF012300202B7070BD70B50400012093
:100F6000002C14D025003D352B78DBB2002B05D1A9
:100F700022003C3213702000FFF792FF022320680A
:100F80002B70211DFFF78EFF012300202B7070BDF9
:100F9000F0B50126046A0E4FB44304628469056A01
:100FA000B84202D00B4FB84202D10326B44300E04E
:100FB00032002243F0241B01A2430F342340F53CAE
:100FC000A543214029431A4382610162F0BDC04616
:100FD000002C014000040040F7B50D000100022381
:100FE0003C310E7804001800012E1AD00138087028
:100FF0004B70002A16D1EB686A6829682068FFF7F1
:10100000C7FF0C2123689A698A439A619A69A96883
:101010000A439A612300012200203D333C341A70B8
:101020002070FEBD2968236801916E68E868042A73
:101030001ED110271A6A3049BA431A629F693602D4
:101040000F403E432D4F00073E40000C3043A0268A
:1010500001991A6A0901B24331401143986119623A
:101060009A6927490A409A61AA6899691202CFE7EA
:10107000AD68082A20D103211A6A224F00013A40A4
:101080001A62DF691A6A8F433E43F027BE430F3767
:10109000384006431C4801990240A0200902000183
:1010A00001401143DE6119620C21DA698A43DA6179
:1010B000DA691543DD61ADE71A6A144F0E493A400B
:1010C0001A62DF6936020F403E430C4F00073E4074
:1010D000000C1A6A30430E4E01993240A0260903D3
:1010E000360231401143D8611962DA6904492D0290
:1010F0000A40DA61DA69DCE7FFFCFFFFFF0FFFFF60
:10110000FFF3FFFFFFFEFFFFFFF5FFFFFFEFFFFF16
:10111000FF5FFFFF30B58468034D0A431B022C407C
:1011200013432343836030BDFF00FFFFF8B5050084
:1011300002233C352A7804001800012A19D0260021
:10114000012720683D362F70337083684F4A134063
:1011500083600B68402B00D16FE016D8102B00D1B4
:1011600087E007D8002B00D17DE0012300203370F9
:101170002870F8BD202B00D181E0302BF5D17022F2
:10118000836893431A00372355E0702B33D01BD864
:10119000502B3BD0602BE8D110244B68CA68016A01
:1011A0003B4FA1430162846912033C402243A024C7
:1011B000016A82617022A1431B010B4303628368B1
:1011C00093431A00672336E08022520193420DD0E8
:1011D000802292019342C8D1CB684A688968FFF7A0
:1011E00099FF80232268DB0191680CE00722836865
:1011F00093438360B9E7CB684A688968FFF78AFF41
:101200007721226893680B439360AEE74A68CB6806
:10121000016A046A1B01BC43F02704628469BC4371
:1012200023430A24A1430A43836102627022836834
:1012300093431A0057231343DBE74A68CB68016ADC
:10124000046A1B01BC43F02704628469BC43234346
:101250000A24A1430A438361026270228368934394
:101260001A004723E7E77022836893431A00072395
:10127000E1E77022836893431A001723DBE77022AB
:10128000836893431A002723D5E7C0468800FFFFF1
:10129000FF0FFFFF702270B5072400688368934337
:1012A0004A681343A3430C6823438360502A1CD02D
:1012B00002D8402A0AD070BD602A28D0702AFAD1FC
:1012C0000B698A68C968FFF725FFF4E70122046A01
:1012D000036A934303628369EF3293431A000B69F5
:1012E0001B01134383610462E5E701258A680B69EA
:1012F000016A046A1B01AC4304628469EF35AC43A4
:1013000023430A24A1430A4383610262D3E71024E2
:101310008B680A69016A074DA1430162846912035F
:101320002C402243A024016A1B01A1430B4382618C
:101330000362C0E7FF0FFFFFF8B505003C352B78CF
:1013400004000220012B13D0260001273D362F7008
:1013500030702000FFF79EFF402100202368DA68EC
:101360008A43DA60DA6803490A40DA603770287025
:10137000F8BDC046FFBFFFFF0121114B11481A689D
:101380000A431A605A6802405A601A680E480240BE
:101390001A601A680D4802401A605A680C480240E8
:1013A0000F205A60DA6A8243DA621A6B09480240F7
:1013B0001A635A6B8A435A6300229A607047C04688
:1013C000001002400CB8FF08FFFFF6FEFFFFFBFF16
:1013D000FFFFC0FFECFEFFFF07B501200C4A91693B
:1013E0000143916193690022034011000193063883
:1013F000019B00F02FFA002202201100404200F071
:1014000029FA002201201100404200F023FA07BD12
:10141000001002407FB50D4B02689A4213D1802024
:101420000B4A8000916901439161936901A90340CE
:101430000093009B03239020019302930023C00597
:10144000039300F0E3F807B000BDC046002401405C
:1014500000100240074B026810B59A4209D1902053
:10146000054A06499369C0050B409361032100F0CA
:101470007DF910BD0024014000100240FFFDFFFF78
:101480007FB5104B02689A4219D1C023DB0001934B
:10149000122390200293113B03930233049301A97A
:1014A0000133C005059300F0B1F88020064A80039F
:1014B000D1690143D161D36903400093009B07B018
:1014C00000BDC04600540040001002407FB50368D4
:1014D000144A93420BD18020134A000191690143C1
:1014E0009161936903400193019B07B000BD0F4ACE
:1014F0009342FAD102230C4A9020D169C0051943C6
:10150000D161D26902931A4000920023009AC0224E
:101510000393049301A901330192059300F076F837
:10152000E3E7C046002C01400010024000040040E8
:101530007FB50F4B02689A4218D180200D4AC00136
:10154000916901439161936901A903400093009B54
:1015500004230193023B029300239020039303335F
:101560000493C005023B059300F050F807B000BD9E
:101570000038014000100240F0B5040041342278E8
:101580000300D2B20220202A18D11D0040352E7847
:10159000012E13D01B68223020701E68233886432A
:1015A0001E601E68064F3E401E601E683143196073
:1015B000196808431860002022702870F0BDC046EA
:1015C000FFEFFFFFF0B5050041352A780300D2B2E6
:1015D0000220202A17D11C0040342678012E12D078
:1015E0001B68223028701E68233886431E601E68E0
:1015F000054F09023E4031431960196808431860DD
:1016000000202A702070F0BDFFF0FFFFF0B50B68DE
:1016100087B0029300230191029ADA4001D107B00A
:10162000F0BD01229A4003920399029A0A40009267
:1016300000D18CE0019A1021526816008E43022ED0
:101640000ED107251D40AD000139A940DC08A400DA
:101650000419276A8F4301990969A9400F4327623A
:1016600003245F00BC40E4430568013E2540AC46CE
:1016700003251540BD4061460D430560012E0FD87E
:1016800001998668CD682640BD403543856046682F
:10169000039915098E4301210D409D403543456056
:1016A000C56801992C408D688021BD4049052C43B7
:1016B000C4600A424BD00121264C0326A5691E4076
:1016C0000D43A561A4699D080C400594059C0F2459
:1016D0002149AD00B6006D18B4409021AF68C9052E
:1016E000A743002488420CD01C490134884208D00A
:1016F0001B490134884204D01A490334884200D17E
:10170000023CB44000993C430E00AC60164CCD4303
:1017100027683E43D10301D43E002E40266067680F
:10172000009E3E43910301D43E002E406660A768B0
:10173000009E3E43D10201D43E002E40A660E668E2
:10174000009F3743920201D42E403700E7600133F7
:1017500062E7C0460010024000000140000400485B
:1017600000080048000C004800040140F7B50023C1
:1017700003250191019ADA4000D1F7BD01279F406E
:10178000019A3A40009253D02C0059008C40E1431A
:10179000026807260A400260DA0892008218146A7A
:1017A0001E40A4460F24B600B44026006446B4434D
:1017B000146282681C000A40826042682C40BA436E
:1017C0004260C2680F271140C1609A08194992000F
:1017D00052189021A400C905A7408C4696680021A4
:1017E0003E4060450FD014498C46012160450AD027
:1017F00012498C460221604505D011498C462900CA
:10180000604500D00521A1408E4211D1009C916815
:10181000E443B94391600B4A11682140116051685B
:1018200021405160916821409160D1680C40D460A2
:1018300001339FE700000140000400480008004811
:10184000000C004800040140002A01D0816170476B
:101850008162FCE770B58901002814DA0F23C0B259
:101860000340083B114A9B089B009B180322104031
:101870009040FC321500114085408140DC69AC434A
:101880002143D96170BD032583082840A840FC3559
:101890002E00074A9B009B18C022864029408140A9
:1018A00092009C58B44321439950EBE700ED00E0CF
:1018B00000E100E0094A431E012093420DD8C021F7
:1018C000074A08485360036A09061B021B0A0B43B8
:1018D000036200200723906013607047FFFFFF0042
:1018E00010E000E000ED00E0054B1A68042802D18A
:1018F00010431860704704218A431A60FAE7C04613
:1019000010E000E0704710B5FFF7FCFF10BD704716
:10191000FEE77047704710B5FEF7E4FFFFF7F3FFEF
:1019200010BD03689A69920701D500229A620122CC
:101930009969114202D199690A439A617047F8B5D1
:1019400004000E0017001D002268936933409B1BA2
:1019500059424B41BB4201D000200EE06B1CF4D039
:10196000002D0BD12300202241331A7022000023C6
:1019700003204232403413702370F8BDFEF7BAFFE3
:10198000069BC01A8542DFD2ECE70000F8B5036879
:101990000400986910230E00170018402025002825
:1019A00015D1F8BD721C13D0002E0BD123002022BC
:1019B00041331A7022000023423240341370032056
:1019C0002370EEE7FEF796FFC01B8642EED3236836
:1019D0009A692A42E6D010222000DA61DD61FFF721
:1019E000A0FF22680849536801200B40536004237C
:1019F00063642300220041331D70002342324034CF
:101A000013702370CDE7C04600E800FEF8B504006F
:101A10000D001600022723689B693B4201D000207D
:101A200018E0320029002000FFF7B0FF002818D18D
:101A30006B1CF0D0002D0ED12022636C03201343C9
:101A40006364230041331A70220000234232403481
:101A500013702370F8BDFEF74DFF801B8542DAD26C
:101A6000EAE70120F6E70000F8B504000D001700D2
:101A70002026042223689B69134201D0002025E020
:101A80003A0029002000FFF781FF00280FD12368CA
:101A90009A6932420DD0DE615A6810490A405A6094
:101AA00023006064413340341E7058702070012060
:101AB0000CE0002D0BD12022636C032013436364E0
:101AC000230041331A70002340342370F8BDFEF721
:101AD00011FFC01B8542CCD2EDE7C04600E800FEF6
:101AE000F8B504000D001600202723689B693B42CF
:101AF00001D0002016E0320029002000FFF746FF49
:101B0000002816D1002D0ED12022636C0320134330
:101B10006364230041331A702200002342324034B0
:101B200013702370F8BDFEF7E5FE801B8542DCD202
:101B3000EAE70120F6E7000070B504000120002C60
:101B40003FD0250041352B78DBB2002B05D1220098
:101B5000403213702000FFF793FC242301212B70E7
:101B60002368E0681A68A6688A431A6061681A4A9E
:101B70000A401A619968194A11409960012821D1D7
:101B80008021090231439960586815490143596021
:101B9000D96800200A40DA60616922690A43A169B4
:101BA00009020A43DA60216AE2690A431A600122E3
:101BB00019680A431A60202360642B702063423442
:101BC000207070BD84210902314399600228DBD165
:101BD000802109015960D7E7FFFFFFF0FF7FFFFF7A
:101BE00000800002F0B51D00030087B0413304916E
:101BF000059203931F780400FFB20220202F02D128
:101C0000002902D1012007B0F0BD059B002BF9D0BF
:101C1000230040331A78012AF5D001221A70FEF70A
:101C200069FE2123039A06001370230042331F70BC
:101C3000049B002263626B469B8A21686264638511
:101C40004B683D48626303404B6020002B000096C8
:101C50000821FFF774FE2368021E06D0802259680F
:101C600012020A435A600320CDE70827DF61E368C8
:101C7000022B09D12B00009639002000FFF75FFEF0
:101C800023680028EAD1DF61802100962B00002222
:101C900049022000FFF753FE00281DD08023226850
:101CA0001B0251680B435360DDE7FFF7AFFE23686B
:101CB000002808D08022596812020A435A60636CD7
:101CC000042BD0D19EE7626A511C616212789A623D
:101CD000638D013B9BB26385678D3200BFB22900E3
:101CE0002000002FE1D1FFF7FBFE2368002808D079
:101CF0008022596812020A435A60626C042AB2D1E7
:101D00006764802720223F02DA6139002B001F3AE6
:101D100000962000FFF713FE23685A6817435F60A0
:101D20000028A0D12022039B1A70230040344233A4
:101D30001870207067E7C046FF7FFFFFF0B51F00F7
:101D4000030087B04133049103931D780400EDB282
:101D500016000220202D5ED100295BD0002A59D028
:101D6000230040331A78012A55D001221A70FEF759
:101D7000C1FD2223039A21681370230000224233FD
:101D80001D700593049B62646685636202904B68D4
:101D90003C48626303404B60029B08210093200093
:101DA0003B00FFF7CCFD2368002806D0802259684D
:101DB00012020A435A6003202DE008228021DA61D2
:101DC000029B073A009349023B002000FFF7B7FD52
:101DD00000282BD0802322681B0251680B435360DC
:101DE000E9E7FFF741FE2368002816D080225968F2
:101DF00012020A435A609A69520708D5626A5B6AFE
:101E0000511C61621370638D013B9BB26385636CEF
:101E1000202BD0D0012007B0F0BD626A5B6A511C54
:101E200061621370638D013B9BB26385638D029A7F
:101E300039002000002BD4D1FFF752FE8025236803
:101E40002D02002806D05A6815435D60636C042B90
:101E5000B1D1DFE72026DE61029B01220093290039
:101E60003B002000FFF76BFD23685A6815435D6057
:101E70000028A0D1039B40341E70059B1870207071
:101E8000C9E7C046FF7FFFFF0C4B10B51968020081
:101E9000002901D10A4919600A49186809680A4CE1
:101EA0000968821809198A4205D90C220120074BBA
:101EB00040421A6010BD1A60FCE7C0468400002052
:101EC0005002002008ED00E000FEFFFF4C02002061
:101ED00070B50E0015000C00A31B9D4201DC28000C
:101EE00070BD207800F01CF80134F5E70120404275
:101EF000704780239B0100204B6070470120704792
:101F00000020704770B50E0015000C00A31B9D4209
:101F100001DC280070BD00E000BF20700134F5E74F
:101F200007B5044B0190012201A9034800F0ECFC25
:101F300001980EBDFFFF00004C010020002382B07D
:101F400001930193019B834201D302B07047019B2F
:101F50000133F6E700234118884201D1D8B2704717
:101F6000027801309B18F7E710B5074C00220221D8
:101F70002000FFF769FC0120FEF7C2FC01220221CC
:101F80002000FFF761FC10BD0004004810B590244C
:101F9000E40586B0002220001021FFF755FC08233D
:101FA0000193073B0293002301A9200003930493AC
:101FB000FFF72CFB0A20FFF7C1FF06B010BD7FB56D
:101FC000082390200193002301A9C00502930393E5
:101FD0000493FFF71BFB0A20FFF7B0FF07B000BD1B
:101FE00010B59024E40586B0012220001021FFF7EF
:101FF0002BFC102301930F3B0293002301A9200027
:1020000003930493FFF702FB0A20FFF797FF06B044
:1020100010BD7FB5102390200193002301A9C005B6
:10202000029303930493FFF7F1FA0A20FFF786FF68
:1020300007B000BDF8B500230A250D4C0D4E2360F6
:102040003380FFF791FF00230B4F01207B62FEF7E7
:1020500057FC786A2368308080B2C018013D206048
:10206000002DEED10A21FEF765F82060F8BDC046CC
:10207000880000208C00002000040040F8B50023F8
:102080000A250F4C0F4E236033800F4F3800FEF7A8
:102090007FFA0E493800FEF7A7FA0028F9D1380078
:1020A000FEF700FB2368308080B2C018013D20603D
:1020B000002DEAD10A21FEF73DF82060F8BDC046A8
:1020C000880000208C00002000020020A086010073
:1020D00010B50A000100024800F010FD10BDC04616
:1020E0008F3A000804210F480F4B10B54161C221FF
:1020F000012203600023FF3143608360C3600261FB
:102100008361C361036243628162C36203634263AA
:10211000FEF74CF9002804D0EB2104484900FFF7F2
:10212000D7FF10BD0002002000240140843A0008BF
:1021300030B50D4C85B005002000FEF7DDF9FFF746
:10214000D1FF80235B010293042301A920000195A4
:102150000393FEF7ABFA002803D08E210348FFF764
:10216000B7FF05B030BDC04600020020843A000829
:1021700010B5174B174C2360174B200063604023AA
:10218000A3603F3BE360002323616361A361E361DC
:102190002362FFF7D1FC002804D083210F48890077
:1021A000FFF796FF00212000FFF7E6F9002803D093
:1021B0000B490A48FFF78CFF00212000FFF702FAC5
:1021C000002803D007490548FFF782FF10BDC0462D
:1021D000005400409C000020E71D1000843A0008D5
:1021E000130200001A0200001A23102200B595B055
:1021F0000893193B0B930D930C920E920F93A02210
:10220000013310930023920308A8119312921393A1
:10221000FEF786FB002804D0CD211C484900FFF7BB
:1022200057FF07230093053B0193002301216846D4
:1022300002930393FEF788FD002804D0A8211348D9
:10224000FF31FFF745FF21230493002304A80693E1
:102250000793FEF7A1FA002804D0B0210B48FF3104
:10226000FFF736FFFEF706FEFA218900FDF762FF51
:10227000FFF720FB0420FFF737FB002201201100AD
:102280004042FFF7E7FA15B000BDC046843A0008A7
:10229000F0B591B0FEF716FBFFF7A6FF8020BD4B0F
:1022A0008002596900240143596180215A69C90299
:1022B000024090200392039A5A69C0050A435A616A
:1022C0005B6900220B4004931821049BFFF7BCFAC2
:1022D00000220221B048FFF7B7FA90201823012608
:1022E0000BA9C0050B930C960D940E94FFF78EF975
:1022F0009020202303250BA9C0050B930C950D946A
:10230000FFF784F90223A4480BA90B930C960D94B4
:102310000E95FFF77BF9FFF7E5FEA048A04B846020
:102320000360E1235B0243600823C46004614361EE
:102330008461C4610462446200F078FAA04203D070
:1023400098499948FFF7C4FEFFF712FF0023974D05
:10235000974C28002C606B60AB60EB602B61AB612D
:10236000FEF7E0FD002804D098218F488900FFF790
:10237000AFFE2800FEF7F1FD002803D08D498A4802
:10238000FFF7A6FE05230B9300230BA928000C934F
:10239000FEF7D2FF002804D09B2183488900FFF775
:1023A00097FE002305A928000593069300F030F955
:1023B000002803D080497C48FFF78AFE00220123D1
:1023C00007A928000792089309920A92FEF704FED3
:1023D000002804D09F2174488900FFF779FE042269
:1023E00007A92800FEF7F8FD002803D073496E48BE
:1023F000FFF76EFE724D734B28002B6000236B605D
:10240000AB60EB602B616B61AB61FEF78BFD00286D
:1024100003D06D496448FFF75BFE80230BA95B0185
:1024200028000B93FEF782FE002804D091215E481D
:102430008900FFF74DFE002307A9280007930893A2
:1024400000F0E6F8002803D060495748FFF740FE47
:102450005F4E604B30003360022373605E4BF3606D
:10246000B36000F0B7FA002803D05C494E48FFF78C
:102470002FFE0223FF33A361FF3B23625333A3608C
:102480000023A362564B7025E36201232360A268F8
:102490005F33AA431343A360524800F0A9FB0195A0
:1024A000300000F0C3FAFFF771FD20232362A26819
:1024B000019B9A4360231343A360FFF7BBFD4A4F80
:1024C0004A4D39684A480B0A6B704A4B29701A8882
:1024D00000F014FB02232362A268019B9A4350235D
:1024E0001343A360FFF7A6FD396843480B0AEB705E
:1024F000404BA9701A8800F001FBFFF760FDFFF761
:102500006FFD0020FFF714FEFFF7B8FD39683B4868
:102510000B0A29716B7100F0F1FA0120FFF708FE38
:10252000FFF7ACFD396836480B0AEB71A97100F072
:10253000E5FAFFF76EFD0520FFF7FAFDFFF79EFDB8
:102540003968304800F0DAFA3B680C212B721B0A1C
:102550006B723223AB7200232800EB72FFF7FAFC98
:10256000294FE872C823012239002848FFF7E6FB0B
:10257000032802D1FFF7FCFD92E70028FAD13B784F
:10258000002BF7D1C8330C2229002048FFF72AFB83
:10259000F0E7C04600100240000400484C01002053
:1025A0000038014096020000843A0008FC00002038
:1025B0000004004065020000730200008102000078
:1025C000BC010020002C01403E0200004B02000034
:1025D000E800002000300040FF0F0000290200004A
:1025E000E8FD0000AC3A0008880000203C01002013
:1025F000B53A00088C000020D83A0008FB3A0008E1
:102600000C3B0008073B0008480100209C0000200C
:1026100030B504003C34227803000220012A17D090
:102620001D001B683D3528705A686E3082435A6021
:102630005A6808684968024380205A609A68824351
:102640009A609A6800200A439A6001232B702070D8
:1026500030BD000070B504000568C2698368006978
:1026600029680343606903433548134301400B4322
:102670002B606B683349206A0B40E1680B436B6049
:10268000A369A9680343304801400B430321AB60B1
:102690002E4B1B6B0B402E49C85C80231B029A42B9
:1026A0002CD1082827D8FDF73BFD05260B261E2632
:1026B00026262100FEF7E4FB636840005B0802E089
:1026C00063685808234BC0186168FDF733FD83B277
:1026D00000200F22190091430A001B0721685B0F9D
:1026E0001343CB6070BDFEF7FDFAE5E76368580859
:1026F00080235B02E7E701200023EAE708281DD8D2
:10270000FDF70EFD051C0A1C141C1C1C1700FEF70F
:10271000B7FB61684B0802E061680F4B4808C018BE
:10272000FDF708FD80B2E8600020DBE7FEF7DAFA8B
:10273000EFE7802361681B024808F0E70120D1E73A
:10274000F369FFFFFFCFFFFFFFF4FFFF0010024020
:102750001D3B00080024F40000127A00436A30B5E3
:10276000DA0706D50168284C4A682240846A224369
:102770004A609A0706D50168244C4A682240C46A18
:1027800022434A605A0706D50168214C4A68224014
:10279000046B22434A601A0706D501681D4C4A683B
:1027A0002240446B22434A60DA0606D501681A4C7F
:1027B0008A682240846B22438A609A0606D50168A3
:1027C000164C8A682240C46B22438A605A0610D590
:1027D0000168134D4A68046C2A4022434A608022F3
:1027E0005203944205D14A680E4C2240446C224365
:1027F0004A601B0606D502680B4953680B40816C82
:102800000B43536030BDC046FFFFFDFFFFFFFEFFDF
:10281000FFFFFBFFFF7FFFFFFFEFFFFFFFDFFFFF7C
:10282000FFFFEFFFFFFF9FFFFFFFF7FF70B5041EE5
:1028300001D1012070BD050069352B78DBB2002B7A
:1028400004D1020068321370FEF772FE24230121C6
:1028500022682B70136820008B431360FFF7FAFE89
:102860000128E6D0636A002B02D02000FFF776FF34
:1028700023680B495A6800200A405A600822996868
:102880000A439A60012219680A431A602200202331
:10289000E0666A3268342B7013702070CAE7C04655
:1028A000FFF7FFFFF8B504000E0015001F002268B7
:1028B000D36933409B1B59424B41AB4201D00020AE
:1028C00018E0069B0133F3D0069B002B13D123683D
:1028D0000C491A6803200A401A609A68A331FF3134
:1028E0008A439A60220020236932137053700023B8
:1028F00068342370F8BDFDF7FDFF069BC01B8342C3
:10290000D5D2E4E75FFEFFFFF0B5070085B0039383
:1029100069373B7804000D0016000220202B46D1B9
:102920000138002943D0002A41D08023A2685B01EE
:102930009A4204D12369002B01D1014237D12300EF
:1029400068331A780220012A31D001221A7000233C
:10295000E36621333B70FDF7CDFF230050331E802B
:102960005E80802602907601210052310A8892B260
:10297000002A0DD1039B402100932000029BFFF70A
:1029800091FF002812D1202368343B7020700EE0A4
:102990000B880022013B9BB20B80039B802100939C
:1029A0002000029BFFF77EFF002802D0032005B025
:1029B000F0BDA3682268B34208D12369002B05D17A
:1029C0002B880235DB05DB0D1385CDE72B78013530
:1029D0001385C9E770B504000120002C14D02368CA
:1029E0000F4A1A600F4A1A6062685A60A2689A60B9
:1029F000FDF780FF05002368D868002805D1196914
:102A0000E268914208D01A6170BDFDF773FF401B68
:102A10002728F0D90320F7E7034A1A60F4E7C046F5
:102A2000CCCC000055550000AAAA00000368024A59
:102A300000201A607047C046AAAA00000D488546CB
:102A40000D480E490E4A002302E0D458C450043306
:102A5000C4188C42F9D30B4A0B4C002301E01360DD
:102A60000432A242FBD3FEF787FC00F011F8FFF717
:102A70000FFCFEE70010002000000020680000208E
:102A8000C43B00086800002050020020FEE7000060
:102A900070B500260C4D0D4C641BA410A64209D144
:102AA000002600F0C7FF0A4D0A4C641BA410A64282
:102AB00005D170BDB300EB5898470136EEE7B3007F
:102AC000EB5898470136F2E7BC3B0008BC3B0008D6
:102AD000BC3B0008C03B0008002310B59A4200D15F
:102AE00010BDCC5CC4540133F8E703008218934254
:102AF00000D1704719700133F9E700000FB40B4B98
:102B000013B51C68002C05D0A369002B02D120004E
:102B100000F03CFA05AB049AA1682000019300F094
:102B200007FC16BC08BC04B01847C04604000020CF
:102B300070B505000E00002804D08369002B01D178
:102B400000F024FAAB69AC68002B02D1280000F039
:102B50001DFA244B9C420FD16C68A3891B0702D538
:102B60002369002B20D12100280000F0A1F80028C3
:102B70001AD00120404270BD1B4B9C4201D1AC6871
:102B8000EBE71A4B9C42E8D1EC68E6E7013B0136E3
:102B9000A360002B04DAA269934216DB0A2914D041
:102BA00023685A1C226019703178A3680029EDD17E
:102BB000013BA360002B0FDA22000A31280000F04D
:102BC00021F8431CD5D00A20D5E72200280000F0C8
:102BD00019F8431CE8D1CCE70A2023685A1C22606C
:102BE0001870C8E7483B0008683B0008283B00080D
:102BF00010B5034B01001868FFF79AFF10BDC046DF
:102C000004000020F8B505000E001400002804D0D0
:102C10008369002B01D100F0B9F9224B9C422DD1E0
:102C20006C68A369A360A3891B0731D52369002BB6
:102C30002ED023682269F7B2981A6369F6B29842D7
:102C400005DB2100280000F033F9002826D1A36815
:102C50000130013BA36023685A1C22601F70636926
:102C6000984204D0A389DB071AD50A2E18D1210077
:102C7000280000F01DF9002812D00FE00A4B9C42FA
:102C800001D1AC68CDE7094B9C42CAD1EC68C8E7DA
:102C90002100280000F00CF80028CAD00126764256
:102CA0003000F8BD483B0008683B0008283B00089E
:102CB000364B70B51D6806000C00002D05D0AB69C1
:102CC000002B02D1280000F061F9314B9C420FD15A
:102CD0006C680C23E25E93B219072DD4D90611D487
:102CE00009230120336037331343A381404270BD71
:102CF000284B9C4201D1AC68EBE7274B9C42E8D1C2
:102D0000EC68E6E75B0713D5616B002908D0230068
:102D10004433994202D0300000F03AFA0023636352
:102D20002422A3899343A381002363602369236042
:102D30000823A2891343A3812369002B0BD1A0216F
:102D40008022A389890092000B40934203D0210086
:102D5000300000F0D9F90123A289134011D00023DB
:102D6000A36063695B42A361002023698342BED1F3
:102D70000C23E25E1306BAD540231343A381013826
:102D8000B5E7920700D46369A360EDE70400002073
:102D9000483B0008683B0008283B0008F7B58A89D3
:102DA00005000C00130760D44B68002B04DC0B6C8F
:102DB000002B01DC0020FEBDE76A002FFAD00023C3
:102DC0002E682B6080235B011A4034D0606DA3898C
:102DD0005B0706D56368C01A636B002B01D0236CB8
:102DE000C01A0200216A00232800E76AB847A189B7
:102DF000431C06D12B681D2B31D82C4ADA40D3074F
:102E00002DD50023636023692360CB0405D5431CC3
:102E100002D12B68002B00D16065616B2E60002908
:102E2000C8D023004433994202D0280000F0B0F902
:102E300000206063BFE70123216A2800B847431CD4
:102E4000C5D12B68002BC2D01D2B01D0162B01D170
:102E50002E60AFE74023A2891343A381ABE7402351
:102E60000B430120A3814042A5E70F69002FA1D0A9
:102E70000B680F60DB1B01930023920700D14B69A5
:102E8000A360019B002B00DC94E7019B3A00216AC0
:102E90002800A66AB047002803DC4023A289134318
:102EA000DFE7019B3F181B1A0193EAE7010040206E
:102EB0000B6970B505000C00002B01D1002070BD1E
:102EC000002804D08369002B01D100F05FF80B4B80
:102ED0009C4209D16C680C22A35E002BEED021002D
:102EE0002800FFF75BFFEAE7054B9C4201D1AC6885
:102EF000F1E7044B9C42EED1EC68ECE7483B00085C
:102F0000683B0008283B000810B5024900F0B2F801
:102F100010BDC046B12E0008002310B504000360A8
:102F20004360836081814366C28103614361836141
:102F3000190008225C30FFF7D8FD054B246263625C
:102F4000044BA362044BE362044B236310BDC046F1
:102F50009D380008C5380008FD38000829390008E8
:102F600070B568254A1E55430E002900743100F0E3
:102F700059F9041E08D000212A00016046600C3077
:102F8000A0606832FFF7B1FD200070BD836913B502
:102F90000400002B28D18364C3640365134B144AD7
:102FA0001B6882620193984201D101238361200052
:102FB00000F020F86060200000F01CF8A060200005
:102FC00000F018F80022E06004216068FFF7A4FF19
:102FD00001220921A068FFF79FFF02221221E06869
:102FE000FFF79AFF0123A36113BDC046243B0008ED
:102FF000092F0008F8B51E4B07001E68B369002BA7
:1030000002D13000FFF7C2FF4836B4687368013B55
:1030100004D53368002B07D03668F6E70C22A55E8E
:10302000002D0DD06834F2E704213800FFF798FF37
:1030300030600028F0D10C2304003B602000F8BD74
:10304000012320005B42E3810233A3816566256092
:10305000A560656025616561A561082229005C3075
:10306000FFF743FD6563A563A564E564E6E7C04635
:10307000243B0008F7B504000700002601914834FE
:10308000002C01D13000FEBD6368A5680093009B51
:10309000013B009301D52468F2E7AB89012B08D9E5
:1030A0000E22AB5E013304D029003800019B984703
:1030B00006436835EBE7000070B50E001D000E23D7
:1030C000C95E90B01400002907DA00232B60B38991
:1030D0001B0611D48023DB000FE001AA00F050FC96
:1030E0000028F2DBF022029B12021340054A9B18D3
:1030F0005A4253412B60EDE740230020236010B07B
:1031000070BDC04600E0FFFFF7B502268B890500C1
:103110000C00334206D02300473323602361012390
:103120006361F7BD01AB6A46FFF7C6FF0099070070
:10313000280000F077F8002808D10C22A35E9A0539
:10314000EFD4032293431E43A681E4E70F4BAB6207
:103150008023A28920601343A381009B20616361C7
:10316000019B002B0DD00E23E15E280000F01AFC1D
:10317000002806D00322A38993431A000123134396
:10318000A381A0893843A081CBE7C046092F00085E
:1031900070B50500002910D00C1F2368002B00DA41
:1031A000E418280000F02FFC1D4A1368002B05D1FD
:1031B00063601460280000F027FC70BDA34209D9A9
:1031C000216860188342F3D118685B684118216058
:1031D000EEE713005A68002A01D0A242F9D9196813
:1031E0005818A0420BD1206809185818196082425B
:1031F000E0D110685268411819605A60DAE7A042BD
:1032000002D90C232B60D5E721686018824203D1D4
:10321000106852684118216062605C60CAE7C0466D
:1032200090000020032370B5CD1C9D430835060097
:103230000C2D1ED20C25A9421DD8300000F0E3FB56
:10324000254A14682100002919D1244C2368002B39
:1032500003D1300000F010FB20602900300000F0A6
:103260000BFB431C2CD10C233000336000F0CCFB53
:1032700003E0002DDFDA0C233360002070BD0B6803
:103280005B1B1AD40B2B03D90B60CC18256003E011
:103290008C420ED163681360300000F0B5FB200053
:1032A00007220B30231D9043C31AE7D05A42E25045
:1032B000E4E74B6863600C00EEE70C004968C2E786
:1032C0000323C41C9C43A042E0D0211A300000F02C
:1032D000D3FA431CDAD1C6E7900000209400002006
:1032E000936810B5013B9360002B05DA9469A34203
:1032F00008DBCBB20A2B05D01368581C106019707C
:10330000C8B210BDFFF77EFCFBE7F8B506000F0062
:103310001400D518AC4201D1002007E021783A0012
:103320003000FFF7DDFF0134431CF3D1F8BD00008E
:10333000F0B59FB006000F0014000593002804D0DC
:103340008369002B01D1FFF721FE7F4B9F425CD1A7
:103350007768BB891B0762D53B69002B5FD00023D0
:1033600006AD6B6120336B761033AB760294029C12
:103370002378002B5DD1029BE31A04930DD0049BAC
:10338000029A39003000FFF7C0FF431C00D1CCE0A7
:103390006A69049B944663446B612378002B00D1D7
:1033A000C3E00122002352426A6002A9543252183B
:1033B00001342B60EB60AB601370AB6521780522A4
:1033C000624800F015FB631C9C46002835D1296833
:1033D000CB0604D5532302AA20309B1818700B0784
:1033E00004D553232B2002AA9B18187023782A2B6C
:1033F0002CD000200A21099B2278303A092A00D8D3
:103400006BE000282AD0099328E0514B9F4201D15C
:10341000B7689EE74F4B9F429BD1F76899E7390009
:103420003000FFF745FC002899D0012040421FB032
:10343000F0BD252B9FD001349AE7444B2968C01A70
:10344000012383400B432B606446B7E7059B181D9F
:103450001B680590002B3ADB0993644623782E2BDA
:103460000BD16378621C2A2B3FD1059B02341A1DB5
:103470001B680592002B35DB079321780322364821
:1034800000F0B6FA002807D0334B2A68C01A402350
:10349000834013432B6001342178631C06222F489C
:1034A0000293297600F0A4FA002844D02C4B002B7C
:1034B0002FD12968059B0722C90528D59B1893435E
:1034C000083305936B69039A9B186B614FE75B4266
:1034D000EB6002230B432B60BFE74B4301349B1887
:1034E000012089E701235B42C6E7002314000A207C
:1034F0001A006B6021783039092903D9002BBCD020
:103500000792BAE74243013452180123F2E7073326
:10351000D5E705AB00933A00124B2900300000E0DC
:1035200000BF0390039B0133CCD1BB895B0600D560
:103530007BE70B987BE705AB00933A00094B29002A
:10354000300000F07FF8ECE7483B0008883B0008BB
:10355000683B0008283B00088E3B0008923B0008AF
:10356000000000000B330008F7B5150001938A68CE
:103570000B6900900C00934200DA130022002B60CC
:1035800043321278002A01D001332B6023689B0656
:1035900002D52B6802332B60062723681F4027D0F3
:1035A000230043331B785A1E93412268920630D47D
:1035B0002200019943320098089EB047431C25D051
:1035C000062320682A68E16803400025042B03D104
:1035D0008D1AEB43DB171D40A3682269934201DD7E
:1035E0009B1AED180027BD4220D1002010E00137C2
:1035F000E3682A689B1A9F42D2DA2200012319321B
:1036000001990098089EB047431CF0D10120404228
:10361000FEBD3020E1184331087021005A1C4531AD
:103620000978A218433202331170C1E72200012346
:103630001A3201990098089EB047431CE6D0013722
:10364000D1E70000F0B58BB006920A004332079331
:10365000059004920A7E0C00109B6E2A00D18FE028
:1036600017D8632A2CD008D8002A00D199E0582A0C
:1036700054D026004236327029E0642A01D0692AEB
:10368000F7D121681A68080623D5111D196015683D
:1036900025E0732A00D188E008D86F2A29D0702A43
:1036A000E7D1202209680A43226003E0752A20D06E
:1036B000782ADED122007821453211706C4A30E040
:1036C0000E001A684236111D196013683370012309
:1036D00079E04906D9D5111D19600023D55E002D6A
:1036E00003DA2D23049A6D421370624B0A27039369
:1036F0002FE020681968050603D5081D18600D68BD
:1037000005E04006F9D50D68081D1860ADB2594BAB
:10371000082703936F2A18D00A2716E045310A704C
:10372000544A03921A682168101D1860156808062B
:1037300022D5CB0702D52023194321601027002D65
:1037400003D1202322689A432260230000224333BE
:103750001A706368A360002B5CDB0422216891432C
:103760002160002D58D1049E002B64D02600039BBD
:1037700042361B7833705EE04806DAD5ADB2D8E742
:1037800009681A68080605D5111D19601368626971
:103790001A6006E04906F7D5111D19601368A28A60
:1037A0001A800023049E236154E01A68111D1960D9
:1037B000166800216268300000F01AF9002801D074
:1037C000801B6060636823610023049A137041E0EA
:1037D0002369320006990598079DA847431C43D0EA
:1037E000236800259B070FD4099BE06898423DDAC7
:1037F00018003BE022000123193206990598079E24
:10380000B047431C30D00135E368099A9B1A9D42AA
:10381000F0DBE9E7002DA9D0049E28003900FCF771
:103820000FFD039B013E5B5C280033703900FCF701
:1038300081FC051EF1D1082F09D12368DB0706D5CD
:1038400063682269934202DC3023013E3370049B9B
:103850009B1B2361079B09AA00932100069B0598E7
:10386000FFF782FE431CB3D1012040420BB0F0BDF4
:10387000AA3B0008993B0008002370B5064C0500E0
:1038800008002360FEF700FB431C03D12368002BD4
:1038900000D02B6070BDC0464C02002070B50C00FB
:1038A0000E25495F00F0B2F8002803DB636D1B189A
:1038B000636570BDA389024A1340A381F9E7C0463E
:1038C000FFEFFFFFF8B51F008B8905000C00160005
:1038D000DB0505D50E23C95E0022022300F074F833
:1038E000A389054A28001340A38132000E23E15E1C
:1038F0003B0000F01FF8F8BDFFEFFFFF70B50C00B4
:103900000E25495F00F060F8A389421C03D1054AE7
:103910001340A38170BD802252011343A3816065CF
:10392000F8E7C046FFEFFFFF10B50E23C95E00F0B9
:1039300015F810BD70B50500080011000022064CF6
:1039400022601A00FEF7C4FA431C03D12368002B3F
:1039500000D02B6070BDC0464C020020002370B523
:10396000064C050008002360FEF7C0FA431C03D193
:103970002368002B00D02B6070BDC0464C02002095
:10398000002370B5064C0500080011002360FEF707
:10399000B0FA431C03D12368002B00D02B6070BD0C
:1039A0004C020020002370B5064C0500080023607F
:1039B000FEF7A4FA431C03D12368002B00D02B6030
:1039C00070BDC0464C02002070B505000800110013
:1039D0000022064C22601A00FEF792FA431C03D123
:1039E0002368002B00D02B6070BDC0464C02002025
:1039F000C9B28218904201D10020704703788B42EF
:103A0000FBD00130F6E770477047000070B5050045
:103A1000080011000022064C22601A00FEF772FA1C
:103A2000431C03D12368002B00D02B6070BDC0461F
:103A30004C020020F8B5C046F8BC08BC9E46704752
:0C3A4000F8B5C046F8BC08BC9E467047B4
:103A4C0002030405060708090A0B0C0D0E0F1010D3
:103A5C000102030405060708090A0B0C0D0E0F10D2
:103A6C000000000000000000010203040607080922
:103A7C0000000000010203045372632F6D61696E34
:103A8C002E630048414C204552524F523A20466911
:103A9C006C653A202573204C696E653A20256900C7
:103AAC00535441525455500D00576972655F313A69
:103ABC0020417665726167653A2025692C20437533
:103ACC007272656E743A2025690D0A005769726529
:103ADC005F323A20417665726167653A2025692C20
:103AEC002043757272656E743A2025690D0A005375
:103AFC00616C696E69747920313A2025690D0A0070
:103B0C0053616C696E69747920323A2025690D0A0B
:103B1C000000040802000000080000200000000063
:103B2C000000000000000000000000000000000089
:103B3C000000000000000000000000000000000079
:103B4C000000000000000000000000000000000069
:103B5C000000000000000000000000000000000059
:103B6C000000000000000000000000000000000049
:103B7C00000000000000000000000000232D302B8E
:103B8C002000686C4C006566674546470030313252
:103B9C0033343536373839414243444546003031A9
:103BAC003233343536373839616263646566000008
:043BBC00E900000814
:043BC000C100000838
:103BC40000127A000800002000000000483B0008B2
:103BD400683B0008283B00080000000000000000CB
:103BE40000000000000000000000000000000000D1
:103BF40000000000000000000000000000000000C1
:103C040000000000000000000000000000000000B0
:103C140000000000000000000000000000000000A0
:083C2400000000000000000098
:0400000508002A3D88
:00000001FF
